:10400000007F0020E19D0000899C0000DD9D0000F4
:10401000DD9D0000DD9D0000DD9D0000DD9D0000B8
:10402000000000000000000000000000DD9D000016
:10403000DD9D000000000000DD9D0000DD9D000012
:104040000000000000000000000000000000000070
:104050000000000000000000000000000000000060
:104060000000000000000000000000000000000050
:104070000000000000000000000000000000000040
:104080000000000000000000000000000000000030
:104090000000000000000000000000000000000020
:1040A0000000000000000000000000000000000010
:1040B0000000000000000000000000000000000000
:1040C00010B5054C237833B9044B13B10448AFF352
:1040D00000800123237010BD70020020000000004A
:1040E000C047010008B5034B1BB103490348AFF3B8
:1040F000008008BD0000000074020020C0470100DD
:104100000020704710B404680968E46BA4465DF8A9
:10411000044B604703680A46DB6C184743084000BD
:1041200003F0553300F0AA3018438308800000F0F4
:10413000CC3003F03333034318091B0103F0F03391
:1041400000F00F30184300BA7047FFFF30B585B05C
:10415000044600210DF10F0006F078F8431C21D031
:1041600004F1D405104BDFED110A9FED110A9DF803
:104170000F20019400930021C3B2284606F00CF9E9
:1041800000220C210446284606F0F8F9044028468F
:1041900006F05EF9E4B20440284606F080F92040BB
:1041A00005B030BD0020FBE781420000000048421E
:1041B00000401C4610B5054B044640F8D43B06F0C1
:1041C000C1F9204601F00EF9204610BD94350100DA
:1041D00010B50446FFF7EEFF20464FF48A710BF04E
:1041E00097FB204610BD072A10B510D80B290ED812
:1041F0000C2404FB020211449DF80C009DF80820D9
:104200000243134314BF0123002381F8493010BD3A
:1042100030B5D0F8B010D0F8C0200D0185B00446FC
:104220005059FFF77BFF2A4401905068FFF776FF53
:1042300002909068FFF772FF0390D368D4F8C4200F
:10424000C4F8C8300131B1FBF2F302FB1311C4F81A
:10425000B01059B994F8D0300BB9C4F8C830D4F8BC
:10426000103103B19847012384F80C310C2201A9C5
:1042700002480CF079FB05B030BD00BF9002002071
:104280002E49F8B50D680A682D4C0B68D210A25C57
:104290005C4204F0070403F0070358BF6342294C53
:1042A00042FA03F3226822F4384222F01802226014
:1042B000226C22F4415222F03002DB07226404F126
:1042C00040041CD5204B214F13F8152003EB450368
:1042D0001C325B7837F832201C331612360156FA3E
:1042E00082F237F8333004F5F864052644F822608A
:1042F0001A12120152FA83F3042244F823200B68A5
:104300006024013393FBF4F204FB12330B60A0B181
:10431000046894B1D4F8C8307BB108F0F9FBD4F844
:10432000CC30C01AD4F8C830984206D92046FFF7DE
:104330006FFF08F0EDFBC4F8CC00F8BD8C02002044
:10434000900200200000044037360100A43901002B
:1043500070B5054600242B1ADBB28B4209D215F842
:10436000016B01333443DB0604BF14600432640084
:10437000F1E770BD30B5044685B00846114604F13A
:10438000B402FFF7E5FFD4F8B4300093D4F8B830A6
:104390000193D4F8BC30029300250123C4F8B05037
:1043A000C4F8C0D0C4F8C43020460395FFF730FFEE
:1043B000C4F8C85005B030BD08B50721002007F08B
:1043C000B1FA06280BD8DFE800F0040B12192027F9
:1043D0002E00184B01225A719A715A749A7408BDB2
:1043E000144B01221A715A719A71DA71F7E7114B65
:1043F00001225A715A745A779A77F0E70D4B0122CD
:104400009A719A749A775A77E9E70A4B01225A719E
:104410009A719A74DA74E2E7064B0122DA719A71A2
:104420009A745A74DBE7034B01225A715A749A74D6
:10443000E2E700BF74040020264B70B5264C1D46F1
:104440000720012200216E5C012E06D107282FD003
:104450006618367B012E08BF002201310C29F2D1EB
:104460000138411CA5F10C05A4F10C04EAD10ABBEA
:104470001A4B1B4803F1600500215C5C012C04BF52
:1044800044545A5401310C29F7D10C33AB4200F19A
:104490000C00F1D16022002112480CF089FAFFF7DC
:1044A0008BFF60220F490D48BDE870400CF05CBAEC
:1044B0000022D2E70C4800240022995C012902BFA7
:1044C0009D1829739C5401320C2AF6D10C3B98425A
:1044D000F2D170BD68040020F00200201404002016
:1044E0009C020020740400200804002038B50F4905
:1044F0000F4C1048104D07F057FD602200210F4867
:104500000CF056FA6022002120460CF051FA60228D
:10451000002128460CF04CFAFFF74EFF29462046B2
:104520006022BDE838400CF01FBA00BF2036010001
:1045300014040020041D0020740400209C020020AC
:1045400038B50F490F4C1048104D07F02DFD602273
:1045500000210F480CF02CFA6022002120460CF0BC
:1045600027FA6022002128460CF022FAFFF724FFE8
:10457000294620466022BDE838400CF0F5B900BF5E
:104580002B36010014040020041D002074040020B8
:104590009C02002038B5074C054608F0B9FA23689C
:1045A000C01AA84204D308F0B3FA2060012038BD35
:1045B0000020FCE7FC02002070B5602200210E48BC
:1045C0000CF0F6F90D4A0C480D4902F16004012582
:1045D0000023CE5C012E02D0D65C012E00D1C55442
:1045E00001330C2BF5D10C32A24200F10C0001F189
:1045F0000C01EDD170BD00BFD404002014040020D4
:104600009C02002038B5104C002508220C212046C1
:1046100000F0D0FE0D4B23606022294604F14900D2
:10462000C4E9105584F848500CF0C2F9642304F131
:10463000D400C4E92B35C4E9325584F8D05005F0D4
:1046400043FD84F80C5138BD00030020943501006F
:1046500008B50248FFF7AEFD08BD00BF000300200B
:1046600038B54FF4FA70FFF795FF78B32D480AF08C
:104670002FFE40B264282AD073284ED0612825D15D
:104680002948002100224418284BCD18AD5C012D8B
:1046900005D1DAB1A51815F8015C012D16D001324B
:1046A0000C2AF1D10C316029ECD103F16000002417
:1046B0000122995C012902BF9D1805F8011C9C5438
:1046C00001320C2AF5D10C338342F1D138BD1648A2
:1046D00000210B224418154BCD18AD5C012D05D1DE
:1046E0000B2AF3D0A5186D78012DEFD012F1FF320F
:1046F000F1D20C316029ECD103F1600000240A22D0
:10470000995C012902BF9D1869709C5412F1FF3217
:10471000F6D20C338342F2D1D8E7BDE83840FFF738
:104720008BBE00BF041D00209C020020140400204A
:104730002DE9F04F85B0274DFFF702FF05F149083D
:104740000024FFF78DFFFFF777FE01232148C5F80E
:10475000C4300394CDE900440294C5F8B040C5F8D4
:10476000C0D0FFF755FD214660224046C5F8C8403D
:10477000194C1A4FDFF868B00CF01AF9FFF71CFF5C
:1047800004F1600AA1460026A35D012B02D0BB5DA7
:10479000012B04D1602259462846FFF7EBFD013674
:1047A0000C2EF1D10C34544507F10C07EBD14FF42A
:1047B000FA70FFF7EFFE002319F80320012A04D155
:1047C000FFF794FE05B0BDE8F08F01330C2BF3D159
:1047D000B6E700BF000300209C0200201404002064
:1047E000D404002010B50D4C4FF4E13120460AF0FE
:1047F00032FD6421204607F00CFC0948FFF7A6FCB7
:104800000849094800F07AFF084800F0DDFE20461C
:104810000749BDE8104007F0C7BB00BF041D0020DA
:1048200000030020243801005C050020340500202E
:10483000F736010038B504460D4600F0C8F8C4F854
:10484000AC5038BD10B5044600F014FB602204F1F2
:1048500049012046FFF78EFD10BD10B5044600F05B
:1048600027F894F8483033B9602204F14901204612
:10487000FFF780FD10BD636C032BFBD9226C602118
:1048800004F14900FFF764FD236CD4F8AC20DA6032
:10489000236C10332364636C103B6364EAE70023EA
:1048A000C3820376037543756423C3630120704795
:1048B000704713B504680093E46AA04702B010BDC6
:1048C0002DE9F74F9246427D0446894612B9027D92
:1048D000002A2FD009EB03070C9B5344013F03F13F
:1048E000FF384D46BD4225DC5646464520DC4D4549
:1048F00005D0BD4203D0564501D046450FD1637D5A
:104900006BB1A17F0191237F2268617F0091D2F872
:1049100060B0294632462046D8470136E5E7237D78
:10492000002BFAD0E17E0191637E2268A17EEDE743
:104930000135D7E703B0BDE8F08F01617047036927
:1049400023B190F8382018685043704718467047D4
:10495000036923B190F839205868504370471846CE
:104960007047002908BF0121002A08BF012280F8F2
:10497000381080F83920704737B5DDB201950468EA
:10498000C3F307250095246EC3F30743A04703B084
:1049900030BD38B51D46036804469B6E98479DF8A8
:1049A000103084F82D309DF8143084F82C5084F8A1
:1049B0002E3038BD37B5DDB201950468C3F3072545
:1049C0000095E46EC3F30743A04703B030BDC16355
:1049D0007047FFFF2DE9F04F97B0CDE90412417DFC
:1049E000027D044611B9002A00F044814FF002080C
:1049F00093FBF8F5209B93FBF8F805FB05F3069372
:104A000008FB08F31293002A7CD01946DA17C8F184
:104A100000039A464FEAE37B069BCDE90A12DA17B8
:104A20001946CDE90C12129A83FB0223CDE90E231D
:104A30004246D317CDE910236B4213932A46EB1756
:104A4000CDE91423DDE91023524573EB0B0359DB49
:104A5000139B0C9A1E46DF170D9B0BFB0AF1CDE949
:104A60000267AAFB0A6707EB410706FB03F10C9BF1
:104A700003FB0713A6FB0212CDE90812099A13449F
:104A80000993059B03EB0A09DDE91423DDE9020123
:104A900082428B4131DBDDE9023203FB02F1A3FBF1
:104AA000032303EB41030B990A98514300FB0311C5
:104AB000A2FB00230B44DDE908018018594102469E
:104AC0000B46DDE90E01904271EB03030DDBE17E45
:104AD00001912268A17E0091126E02980499637E72
:104AE000164601444A462046B047DDE9022301321A
:104AF00043F10003CDE90223C6E71AF1010A4BF1A5
:104B0000000B9FE7637D002B00F0B4806B429A4658
:104B10004FEAE37B2A46EB17CDE90223DDE90223C6
:104B2000524573EB0B034CDB504659460BF082F8B1
:104B300002460B460BF0ACF8064606980F460BF003
:104B40003DF802460B46304639460BF0CBF902469B
:104B50000B46002049490AF0E3FE41EC100B0BF034
:104B600097FD53EC102B4046CDE908230BF026F8B7
:104B7000DDE908230BF08CF80BF03AFBA17F2268EB
:104B80000191617F049B0091D2F86090059A03EB3C
:104B90000A0602440746237F31462046C847A17FC4
:104BA00022680191617F0091D2F86090059A237F7D
:104BB000D21B31462046C8471AF1010A4BF1000BBF
:104BC000ACE74246D317CDE90223C8F10006F71738
:104BD000DDE90223B242BB414CDB304639460BF0E3
:104BE00029F802460B460BF053F880461298894686
:104BF0000AF0E4FF02460B46404649460BF072F9C4
:104C000002460B4600201D490AF08AFE41EC100BBB
:104C10000BF03EFD53EC102B2846CDE906230AF09D
:104C2000CDFFDDE906230BF033F80BF0E1FAA17FAD
:104C3000059B0191617F226800910499D2F860B0D0
:104C400003EB060901448046237F4A462046D847A5
:104C5000A17F0191617F226800910499D2F860B030
:104C6000237F4A46A1EB08012046D847013647F189
:104C70000007ADE717B0BDE8F08F00BF0000F03FC0
:104C80002DE9F04F85B0814608469A468846039242
:104C900000F06EFC0E9B029023EAE3734FEA830B55
:104CA00055460F9AA5EB0A039A4225DD029C002681
:104CB0000E9B9E4204F1040412DA14F8021C14F84C
:104CC000043C019114F8031CD9F800200091126EE5
:104CD0000399174671182A464846B8470136E7E750
:104CE000404600F047FC0E9BC01A029B0BEB800075
:104CF000034402930135D4E705B0BDE8F08F2DE9F8
:104D0000F04F85B0814608469A468846039200F0E7
:104D10002FFC0E9B029023EAE37303EB430B5546F3
:104D20000F9AA5EB0A039A4226DD029C00260E9BF1
:104D30009E4204F1030412DA14F8011C14F8033C37
:104D4000019114F8021CD9F800200091126E039909
:104D5000174671182A464846B8470136E7E74046E5
:104D600000F008FC0E9BC01A00EB4000029B584468
:104D7000034402930135D3E705B0BDE8F08F2DE978
:104D8000F04F85B08046084699460F46924600F09F
:104D9000EFFB0E9B039023EAE3734FEA430B4D4670
:104DA0000F9AA5EB09039A4227DD00240E9B9C4233
:104DB00017DA039BD8F8001033F814201312D00030
:104DC000D210C0B202F0FC02019000920A6E03F011
:104DD000F80316460AEB04012A464046B047013460
:104DE000E4E7384600F0C6FB0E9BC01A039B0BEBB2
:104DF0004000034403930135D2E705B0BDE8F08FCE
:104E00002DE9F74398460368054608460C46DE6DD3
:104E1000174600F0AFFB8146204600F0ADFB43464D
:104E2000CDE900903A4621462846B04703B0BDE898
:104E3000F08308B501F13E03DBB2012B03D949B27F
:104E4000203007F07DF9012008BDFFFF0149203027
:104E500007F04BB9FB42010070B504460E461546FB
:104E60000349203007F041F9C4E90C6570BD00BF6B
:104E7000FB4201002DE9F04F89B0437D0493037F8D
:104E800005930546437F06930129837F07930446D4
:104E90000E4655F8203B45D11B6D876A9847236B1A
:104EA000013307FB003900274F4580F25481236806
:104EB00020461B6A9847236B94F82C1094F82D20F9
:104EC0002177A3EB070894F82E30A3772368627745
:104ED000D3F840A06675636B424629462046D0470A
:104EE0002169A26A0B6894F816C0E07D84F81CC0A2
:104EF00002FB0383227E6077A2774968626B206899
:104F00006675114401390091D0F830A01946204649
:104F1000D047236820465B6A9847E06B07F0B4FDF2
:104F20000137C1E702295BD11B6D866A9847236B65
:104F300006FB0038002708F1FF3A4FF0010947450A
:104F400080F20981236820461B6A9847266B94F8F3
:104F50002C1094F82D202177AAEB0703F61A94F869
:104F60002E30A37723686277D3F840B084F8159089
:104F70003246636B29462046D847237EA377A17D1E
:104F8000E27D2369217762775B68626B216884F830
:104F900015901344013B013E0093D1F830B03346E5
:104FA00031462046D847236994F839009968039020
:104FB00094F8380002905B682268CDE9009320469F
:104FC000D1F88010D2F87CB0636B3246D8472368A2
:104FD00020465B6A9847E06B07F056FD0137AEE765
:104FE000032943D15B6D9847636B002600EB0308F0
:104FF0004FF00109B045C0F2AE80236820461B6A1D
:10500000984794F82E30676B94F82C1094F82D2064
:10501000A37723682177BF1B6277D3F840A0226B68
:1050200084F815903B4629462046D0472369E07D09
:105030005A68217EA1773A44A77D2777216B607754
:1050400018682768A36A009201F1FF3C03FB00C3C4
:1050500084F8159020463F6BB847236820465B6A6A
:105060009847E06B07F010FD0136C3E704295AD1D9
:105070005B6D9847636B00EB0308002708F1FF3A6C
:105080004FF00109474566DA236820461B6A9847B6
:10509000666B94F82C1094F82D202177AAEB070367
:1050A000F61A94F82E30A37723686277D3F840B0CD
:1050B000226B84F81590334629462046D847237E34
:1050C000A377A17DE27D236921776277013E206885
:1050D000216B1B680096D0F830B0A06A84F8159058
:1050E0004A1E00FB032332462046D847236994F822
:1050F00039009968039094F838002268CDE901904E
:105100001B680093D1F88010D2F87CB0226B334634
:105110002046D847236820465B6A9847E06B07F033
:10512000B3FC0137AEE71B6A984794F82E3094F829
:105130002C1094F82D20A377236821776277012023
:1051400060751E6C2046D4E90C232946B0472368BD
:1051500020465B6A9847049B8BB1012363759DF8D9
:10516000143023779DF8183063779DF81C30A377AF
:105170000549284609B0BDE8F04F06F0B6BF9DF8D6
:1051800010306375F4E700BFFB420100437D73B547
:105190003BB1447F0568867F01960094037F2C6EA7
:1051A000A04702B070BD2DE9FF411F4603690446C8
:1051B0001546002B3AD0437D002B37D04E1E16F9F2
:1051C000013F002B32D0DBB20A2B08D1226994F8C0
:1051D0003930526802FB0377F1E70025EFE70D2B2A
:1051E000FBD003F13E02D2B2012AE8D922699068CD
:1051F00050F8231011B9D0F8801081B194F839001B
:10520000039094F838000290506801902368126867
:105210000092D3F87C802A463B462046C04722694C
:1052200094F83830126802FB0355C8E704B0BDE8B3
:10523000F0812DE9F04F8BB098469DF85C300793D4
:10524000437D9DF858700446CDE90512002B71D0BE
:10525000002F6FD0079B002B6CD000296AD0149BC5
:1052600003FB0723002B65DB079B159A02FB0383D7
:10527000002B5FDB8368069A93425BDBC368434580
:1052800058DB8B46059B159AABEB03039A4251DD25
:105290001BF8013B099300230393039B039A4344A8
:1052A0000493079B9A421ED0E3689A4242DA069D15
:1052B0004FF00009149B4B4539DD099AC9F10703EA
:1052C00042FA03F313F0010F05EB07032946089395
:1052D0000CD1089B99421BD1A3683D44AB4226DD0B
:1052E00009F10109E6E7DDF81080CBE7089B994258
:1052F000F2D0A07F01902268607F0090126E237F21
:1053000001F1010A16462046049AB0475146EDE7DE
:10531000207E01902268E07D0090126EA37D01F155
:10532000010A16462046049AB0475146D1E7039B2E
:105330000133B1E70BB0BDE8F08F2DE9F0471F4610
:105340000B6804469B6808460D461646DDE9088949
:10535000984760B316EB080F29D417EB090F26D432
:10536000A368B34223DBE368BB4220DB284600F09E
:10537000FDF801280FD0022813D0C0B9CDE9088963
:105380002368D3F880E03B46324629462046F4465F
:10539000BDE8F0476047CDE908892368D3F884E089
:1053A000F1E7CDE908892368D3F888E0EBE7BDE8A9
:1053B000F087FFFF10B500230446436007482060D4
:1053C000C4E902122361064904F1200006F06EFED2
:1053D00040F201132387204610BD00BF183701009B
:1053E000FB42010010B5044B044640F8203B06F098
:1053F00012FE204610BD00BF183701002DE9F04F06
:1054000085B090460E9CA41A48BF64424FEA4402FD
:105410009A46A3EB010307460D464CBF4FF0FF39F8
:105420004FF001090392D61A4FEA430B554514DC9D
:10543000B97F3B7F3A680191797F0091126E2946CE
:10544000144638464246A047002E039BC4BFA6EB35
:105450000B06C8441E440135E8E705B0BDE8F08FEF
:105460002DE9F74F5B1A15460C9A48BF5B42A2EB39
:1054700005094FEA4304A4EB0906074688464CBFDA
:105480004FF0FF3A4FF0010A4FEA49090C9B9D4249
:1054900013DCB97F3A683B7F0191797F0091D2F8A4
:1054A00060B041462A463846D847002EC4BFA6EB16
:1054B0000906D04426440135E8E703B0BDE8F08F83
:1054C00090F815C02DE9F341DDF8208004460D4623
:1054D00016461F46BCF1000F45D099420ED14645F5
:1054E00041DCA17F2268237F0191617F0091176ECB
:1054F000294632462046B8470136F0E742450FD1EB
:10550000AF4230DBA17F2268237F0191617F009150
:10551000D2F86080294632462046C0470135EFE781
:10552000A8EB020C5C1ABCF1000FB8BFCCF1000C68
:10553000002CB8BF6442A4450ADA9942C1BF089260
:105540000B464246394602B0BDE8F041FFF756BF70
:105550004245C1BF08920B464246394602B0BDE8FB
:10556000F041FFF77DBF02B0BDE8F08140687047B1
:1055700080687047C06870470069704770B5002345
:105580000E4D03702B78BFF35B8F13F001040646BA
:105590000CD128460AF0A5F940B1094B094A5A60D6
:1055A000284636221C601A810AF0A7F900F014F888
:1055B000034900F033F8304670BD00BF38050020C5
:1055C0003C050020A43701007047FFFF0148FFF7AA
:1055D000D5BF00BF3405002038B5094D2C78BFF386
:1055E0005B8F14F0010409D128460AF07AF928B13A
:1055F000044B28461C805C600AF07FF9014838BDE6
:10560000480500204C05002010B50446FFF7E4FFD4
:1056100003882360FFF7E0FF406810BD38B50D46F2
:1056200001882B891944044689B2018040680BF037
:1056300017FF2A89238860609B1A69681844BDE8AF
:1056400038400BF091B9FFFF014B01221A707047EF
:105650000000002010B5054C20780028FCD0002068
:105660009BB2207007F0B0FC10BD00BF000000200E
:105670000AF070B87047F8B506460C468F1800253A
:10568000BC420AD014F8011B0D29F9D0336830460A
:105690001B68984708B10135F2E72846F8BDFFFFBF
:1056A00070B500234360104E104B03603378BFF396
:1056B0005B8F13F0010504460CD130460AF011F956
:1056C00040B10B4B0B4A5A6030462F221D601A81A5
:1056D0000AF013F9FFF780FF0549FFF79FFF064B1C
:1056E0002361204670BD00BF700500201438010002
:1056F00074050020DA370100243801000161704789
:1057000010B50C46FFF768FF224608230221BDE8CA
:105710001040FFF79FBF872910B521D97831C9B252
:10572000837A8B4216D0C37A8B4213D0037B8B4291
:1057300010D0437B8B420DD0837B8B420AD0C37B3E
:105740008B4207D000F10A02002312F8014B84BB00
:105750000344997200F10801FFF7D2FF012010E025
:105760000A0608D50123803903FA01F1037A1943A7
:1057700001720021D4E70369595C19B90123436020
:10578000002010BD01F0C003C02B09D1037A43F003
:105790004003037201F03F01322908BF6421BFE7D3
:1057A0000B0641BF037A43F00203037201F07F014D
:1057B000F2E70133062BC8D1E0E7872938B514D9C1
:1057C0007831C9B200F10A0300F11002002419B1C6
:1057D0001D788D4208BF1C7001339342F7D100F150
:1057E0000801FFF78DFF012038BD0A0608D5803972
:1057F00001238B40017A21EA030101720021E1E7D4
:105800000369595CB1B101F0C003C02B09D1037A1F
:1058100023F04003037201F03F01322908BF6421E5
:10582000D0E70B0641BF037A23F00203037201F0B5
:105830007F01F2E70846D7E770B505460E46FFF749
:105840006AFF314604462846FFF7B7FFE0B270BD55
:105850000148FFF725BF00BF5C05002008B507F031
:10586000F5F8002008BD27207047FFFF08B50B4B57
:105870004AF20252A3F8FE23094A282111604FF48C
:105880002542A3F8FE230121152007F053F801213A
:105890001520BDE8084007F065B800BF00E00140F2
:1058A00001E50140034AB2F8CC3043F08003A2F88E
:1058B000CC3070470000094037B5FFF7D9FE012111
:1058C0000D2007F037F800210D2007F04BF868464F
:1058D0000722032109F084FFBDF800301C4CC3F3FC
:1058E00084130125684607220521E55409F078FF55
:1058F000BDF80030C3F38413684607220621E5543F
:1059000009F06EFFBDF80030C3F384136846072228
:105910000921E55409F064FFBDF80030C3F3841396
:10592000684607220A21E55409F05AFFBDF8003005
:10593000C3F3841307220B216846E55409F050FF96
:10594000BDF80030C3F38413E55403B030BD00BF8D
:10595000DE06002030B5836A85B004468C4601AD72
:10596000ABB193E8070085E807006268117883F817
:1059700004C0E26A9A6019601846626A9047A36A96
:105980001BB195E8070083E8070005B030BD2B4642
:10599000EBE700BF10B4EFF30383103B5BB203F1FE
:1059A000C001204A204C52F821006FF3104042F809
:1059B000210054F82330D3E906218A421BD018690C
:1059C00040B393F820400F2C0BD99968496840F8F0
:1059D0002210D96901328A429A610CD05DF8044BD9
:1059E0007047072C19D8996809798154D96901320F
:1059F0008A429A61F2D15B680C4993F903305DF8F1
:105A0000044B5809012203F01F0302FA03F341F883
:105A10002030704798684068DCE79C68A48820F8CC
:105A20001240D7E7006000404C06002000E100E093
:105A3000F0B5EFF30383103B5BB203F1C0022F49D3
:105A40002F4C51F822006FF3104041F8220054F817
:105A500023305868026A002A30D092F801C0DC690D
:105A60005A69BCF1010F17D094420FD0D96841B3E5
:105A700093F820000F280AD80728986895BF895CFA
:105A800031F812100171818001325A61F0BD9868BD
:105A900051F822104160F7E704F1FF3E724513D040
:105AA00001690029E0D090F9031016484D0901F072
:105AB0001F010CFA01F140F82510D5E75A69DC699D
:105AC000D2E798684160DFE790F903E00EF1C00685
:105AD0004FEA5E10800051F8267000F1604000F53A
:105AE00061400EF01F0E0CFA0EF56FF3104741F8EF
:105AF0002670C0F880510560B6E700BF0060004026
:105B00004C06002000E100E010B4EFF30383103BEB
:105B10005BB2324A324C03F1C00152F821006FF3FC
:105B2000104042F8210054F823008268D27892078E
:105B300006D54268527A012A02D05DF8044B7047BC
:105B40005909284C0122203103F01F0302FA03F304
:105B500044F82130BFF34F8FBFF36F8F436893F941
:105B60000230002B2FDB5909203103F01F0302FA0A
:105B700003F344F82130BFF34F8FBFF36F8FD0E9A9
:105B80000114237891F902106FF386130029237012
:105B900014DB01F1C00C114C4B099B0001F01F01FB
:105BA0008A4003F1604354F82C1003F561436FF30E
:105BB000104144F82C10C3F880211A605DF8044BA2
:105BC0000121FFF7C7BE82685DF8044B13786FF3BD
:105BD000861313700121FFF7BDBE00BF00600040B7
:105BE0004C06002000E100E070B5EFF30384103CA8
:105BF000314B64B253F82460736893F90230002B80
:105C000042DB5A092D492032012003F01F0300FA1C
:105C100003F341F82230BFF34F8FBFF36F8FD6E904
:105C2000012392F902101A7800296FF386121A7074
:105C300015DB01F1C00C224D4A09920001F01F0151
:105C400000FA01F102F1604255F82C0002F56142C0
:105C50006FF3104045F82C00C2F880111160DA781B
:105C60000021D5B21207D97021D4EB0712D405F068
:105C70001405142D16D0124BC03453F824206FF3A2
:105C8000104243F8242070BDB3681A786FF386126F
:105C90001A70E4E70421304605F01405FFF75AFEB8
:105CA000142DE8D108213046FFF754FEE3E7052123
:105CB0003046FFF74FFED8E74C06002000E100E039
:105CC00000600040036A70B50446987800F07B00DD
:105CD00098700D46217841B32261E269E560106950
:105CE000002841D0226982B1A378816800688E685B
:105CF000E16803F00303013B22FA03F3002222616F
:105D00009BB2B04780B9236A21789A7842F080022A
:105D10009A7039BB94F802C00CF0030CBCF1020F6E
:105D20001AD02A78DA70002070BD94F802C0E069B9
:105D30000CF0030E0069A2EB0E02226105EB0E02CD
:105D4000E2600028CED19A780CF0030C42F0800279
:105D5000BCF1020F9A70E4D12A8842F47E420020FE
:105D6000DA8170BD002070BD9A7842F080029A708E
:105D700070BD00BF036A91F801C09A7800B502F0C7
:105D80007B0E02F00B029A700022C2608878587075
:105D900010461A786CF301021A70CA789A7493F854
:105DA00007C00A780CF0A30102F05C020A43DA7122
:105DB00083F802E05DF804FB10B5D0E90721002369
:105DC00043608B7092F905202F4904465009012346
:105DD000203002F01F0203FA02F241F82020BFF344
:105DE0004F8FBFF36F8FE26992F90B20500920307B
:105DF00002F01F0203FA02F241F82020BFF34F8F96
:105E0000BFF36F8FE26992F907205009203002F04A
:105E10001F0203FA02F241F82020BFF34F8FBFF3B5
:105E20006F8FE26992F90920500902F01F02934036
:105E300000F1200241F82230BFF34F8FBFF36F8F84
:105E4000E369DA6822B1936810681B6A9847E369CE
:105E50001B691BB19A681868136A9847EFF31081A1
:105E6000012383F31088E369084A1C78D2F8000103
:105E70004FF00043E3400343C2F80031D2F8003151
:105E800081F31088002010BD00E100E0006F0440A5
:105E9000F0B5846A85B005460F4694466E46B4B1A7
:105EA00094E80F0086E80F00EB691B7884F804C0C3
:105EB0002360EB6A2046C4E902736B6A9847AC6AB8
:105EC0001CB196E80F0084E80F0005B0F0BD344621
:105ED000EAE700BF8C46516830B4029C0D6880B977
:105EE0001C609CF8010038B9E8784FF0010C0B34C5
:105EF0006CF30510E8701C60936810681B6830BC78
:105F0000184704F10C001860EBE700BF2DE9F047DB
:105F10000D4609780323CB4013F0010301F1007211
:105F200018BF1023037002F56052837852010121DB
:105F300061F301030262A9696A6942620022C0E951
:105F40000A21C56183706B7882B0044623B98378D7
:105F5000022262F30103837095F90B00594B95F807
:105F60000AC04209203200F01F06012101FA06F69C
:105F700043F82260BFF34F8FBFF36F8F524A534EE7
:105F800000F1C0074FEA0C1C52F827E06FF3104EE7
:105F900042F827E01F185FFA8CFC87F800C346F828
:105FA000204095F9050095F804C04709203700F016
:105FB0001F0E01FA0EFE43F827E0BFF34F8FBFF329
:105FC0006F8F00F1C00703EB000852F827E04FEA9B
:105FD0000C1C5FFA8CFC6FF3104E42F827E088F837
:105FE00000C346F8204095F9070095F806C0470918
:105FF000203700F01F0E01FA0EFE43F827E0BFF332
:106000004F8FBFF36F8F00F1C00703EB000852F80A
:1060100027E04FEA0C1C5FFA8CFC6FF3104E42F83D
:1060200027E088F800C346F8204095F9090095F864
:1060300008C04709203700F01F0E01FA0EF143F89F
:106040002710BFF34F8FBFF36F8F00F1C0074FEAE8
:106050000C1152F827C003446FF3104C42F827C0CC
:10606000C9B283F80013EA6846F8204072B1536859
:106070001B684FF4002143F8041B216A053100918D
:10608000E1692078FFF726FF0646B0B92A69FAB120
:1060900053681B684FF0006143F8081B216A033105
:1060A0000091E1692078FFF715FF064680B1EB68A3
:1060B0001BB19A681868136A9847304602B0BDE869
:1060C000F08700BF00E100E0006000404C060020C7
:1060D000EFF31080012383F31088984B2E78D3F8C8
:1060E00000214FF00041F14022EA0102C3F80021F3
:1060F000D3F8003180F31088236AE06900229A7097
:106100001A715A729A72DA725A83297840F2072207
:10611000CA40D20744BF4022DA7406221A77227896
:106120007AB1C168013A002900F0FE80012612030D
:1061300091B2314341F006029A829A8A92B2914218
:10614000FBD1EA78A978D20042EA011269780329E2
:1061500000F0D780002914BFF221E221ED69D2B20C
:106160001A7099712A7B520002F002025A736A78FF
:10617000A97800261E7295F800C0D201490101F0ED
:106180002001D2B20A43ACF10201012940F2BD80E4
:10619000D2B2DA716A68917859701978567866F3D4
:1061A00001011970D17899741278D97902F05C02E2
:1061B00001F0A3010A43DA710027C4E90377C4E9B7
:1061C000057790F905105E4E01F1C00E4A0956F8A8
:1061D0002E80920067F3104802F1604246F82E804C
:1061E00002F561424FF0010E01F01F010EFA01F1BC
:1061F000C2F88011116090F90B1001F1C0094A0931
:1062000056F829A0920002F1604202F5614267F35C
:10621000104A01F01F0146F829A00EFA01F1C2F858
:106220008011116090F9071001F1C0094A0956F870
:1062300029A0920002F1604202F5614201F01F01C3
:1062400067F3104A46F829A00EFA01F1C2F880114E
:10625000116090F9091001F1C0004A0956F8209028
:10626000920002F1604267F3104946F8209002F56F
:1062700061420CF0030C01F01F010EFA01F14CF029
:10628000700CC2F88011116083F802C06B89238101
:106290004FF6FF7843452DD0EFF310818EF3108831
:1062A000284A13681BB92848C3704023C370136879
:1062B0000133136081F31088218924480B0A1B01E4
:1062C00053FA81F150F8213023F0011323F44043B5
:1062D00043F0040340F82130EFF31081012383F3EE
:1062E0001088136813B11368013B13601368B3B1CE
:1062F00081F31088164B63600026304602B0BDE87B
:10630000F08742F04002F22128E7BCF1020F08BFFB
:1063100042F01002FF21D2B25970DA714CE70A4AFA
:106320008020D370D070E3E7C169097A1140090277
:1063300001F4706141F00106F9E600BF006F04400E
:106340000060004048060020000D044000080440A2
:10635000554943532DE9F04F1E46FF23B370337860
:106360006FF382038BB033708023F370554B099227
:10637000554A1B6A12680191C3F302618A40C3F354
:106380000233DA40514B07900021100A069208911F
:10639000059002910093A2FB03BA099B009A9342D5
:1063A0006EDA9DF8203003930027494B039ADD5D98
:1063B000C5F34003C5F3800504932B43934256D1A4
:1063C000444B33F81780079B03FB08F8069BB3FB8D
:1063D000F8F2541EFF2C4AD802FB08F91DE0059B79
:1063E000B9FBF3F37F2B03FB00F040D90028B8BFC3
:1063F000FF300012A0F5C330A0380028009AB8BFC3
:106400004042824240DC029BF370337843F0040345
:10641000A9EB0809337054B3013C4A464FEAE973CB
:106420005846514609F07CFF019A002AD7D1A0F5C1
:10643000C333A03B002B009AB8BF5B429A4216DDE3
:106440000093234BB470DA5D3378C2F3000161F33B
:106450008613049961F3041365F3C30333707378EF
:10646000C2F3C10262F301037370019B029301370F
:106470000D2F9AD1089BF3B1009B099A93421DDC22
:1064800000200BB0BDE8F08F0293114B049AD95D48
:1064900033780090C1F3000060F3861362F30413B5
:1064A00065F3C30333707378B470C1F3C10161F352
:1064B00001037370A7E7012308936EE703200BB075
:1064C000BDE8F08F00E00140D8060020A086010062
:1064D000DC3A0100EC3A0100F0B5EFF30383103B26
:1064E0005BB203F1C001344A344C52F821006FF31F
:1064F000104042F8210054F82300C3691B6913B10E
:10650000036913B1F0BD036983B9D0E90824937816
:1065100003F07F03002143F004039370C160002C5B
:10652000F0D0BDE8F0408022FFF7B2BC05785DB343
:10653000066AF18AC1F30421A9421ED28478C26896
:106540001F4F04F0030E74460BE092F800C086F86B
:106550000FC001311B1B2244A942C0E903230CD206
:106560005BB1BEF1020FF0D1B2F800C04CEA070CEB
:106570001FFA8CFCA6F80EC0EBE732796FF3C71256
:106580003271002BBED1C0E7827802F003010229EC
:10659000C1680BD0046A0D78E57002F003029B1A03
:1065A0000A44C0E90323002BACD1AEE70C88056A8E
:1065B00044F47E44EC81F0E7006000404C0600208B
:1065C00000FEFFFF10B582B0EFF30383103B5BB218
:1065D00003F1C001574A584C52F821006FF31040A4
:1065E00042F8210054F82340E369DB6813B1A36942
:1065F000002B49D122894FF6FF739A4275D1227838
:10660000236AF2B1D98AC80612D01B8AC3F30803E1
:106610000193A369FBB9636A2BB104220199204657
:10662000FFF736FC22782AB1236AD98AC906E8D155
:10663000BE221A7123894FF6FF72934231D102B004
:1066400010BDA17801F003010229DED05B7901932E
:10665000A369002BDFD0A278606902F0030201A9D0
:106660000AF082F9D4E90521A37803F003031A4460
:10667000C91AC4E9052129B9636A1BB10122204660
:10668000FFF706FC2278CEE7636A0021C4E9051112
:10669000002BD4D00122204602B0BDE81040FFF705
:1066A000F7BB1A0A1201254952FA83F351F8232045
:1066B00022F0011222F4404242F0040241F8232069
:1066C000EFF31082012383F310881D4B196811B179
:1066D0001968013919601B681BB91A498020CB70F1
:1066E000C87082F3108802B010BDEFF3108101234F
:1066F00083F31088124B1A681AB91248C2704022EC
:10670000C2701A6801321A6081F3108822890B491D
:10671000130A1B0153FA82F251F8223023F00113BD
:1067200023F4404343F0050341F82230236A2278E2
:1067300067E700BF006000404C06002000080440EE
:1067400048060020000D044010B5EFF30384103C10
:106750000B4B64B253F82400D0E90821937803F07E
:106760007B03937019B102220021FFF791FB054BC7
:10677000C03453F824206FF3104243F8242010BD96
:106780004C0600200060004010B5EFF30384103C7D
:10679000194B64B253F82400037843B9837803F0AB
:1067A0000303022B03D0036A5979C9B203E0036AD9
:1067B000198AC1F3080193F804C01CF0100F0CF003
:1067C000380206D093F81CC01CF0010F08BF42F03D
:1067D000400293F804C00CF0C70C83F804C0436A6D
:1067E0000BB1FFF755FB054BC03453F824206FF372
:1067F000104243F8242010BD4C06002000600040E9
:1068000030B5436A85B004468C4601ADABB193E820
:10681000070085E807006268117883F804C0A26A5F
:106820009A6019601846226A9047636A1BB195E81E
:10683000070083E8070005B030BD2B46EBE700BF3B
:1068400010B4EFF30383103B5BB203F1C001144AB1
:10685000144C52F821006FF3104042F8210054F814
:1068600023305A69D9698A4206D2D3E90240A8B1D5
:10687000805CE07001325A618A4202D05DF8044BBC
:1068800070471A69002AF9D19A685DF8044B937829
:1068900003F07B0343F0040393707047E070E9E773
:1068A000006000404C06002010B4EFF30383103B5F
:1068B0005BB203F1C001174A174C52F821006FF385
:1068C000104042F8210054F823305A69D9698A42AD
:1068D00006D2D3E90240D0B1805CE07001325A6147
:1068E0009A698A4207D2986819694079541C9C6158
:1068F0008854D3E90621914206D19A68937803F02F
:106900003B0343F0040393705DF8044B7047E07061
:10691000E4E700BF006000404C06002010B5EFF334
:106920000384103C0A4B64B2012153F824008268AE
:10693000937803F003039370FFF762FFC034054BB5
:1069400053F824206FF3104243F8242010BD00BFF9
:106950004C0600200060004010B5EFF30384103CAB
:106960000C4B64B24FF0840C53F8240083689A787F
:1069700002F003029A701A7983F804C00421FFF729
:106980003FFFC034044B53F824206FF3104243F808
:10699000242010BD4C0600200060004003685969A7
:1069A000A1B190F82D3070B5044603F0FF0563B92E
:1069B0008A68038C96680868A1692A46B047E2692C
:1069C000C4E90852012384F8333070BD704700BF1A
:1069D00070B5866B82B004460B466D463EB396E8B2
:1069E000030085E80300E26B3371236832605A6963
:1069F00012B194F82D10A1B19B6913B194F82D2018
:106A000052B9636B30469847A36B1BB195E80300FE
:106A100083E8030002B070BD9A681868136998474C
:106A2000EFE7936810681B6998472368E4E72E46F0
:106A3000D9E700BFEFF30383103B5BB2044AC033D6
:106A400052F823106FF3104142F82310704700BF33
:106A50000060004070B5EFF30383103B5BB2614A06
:106A6000C03352F823106FF3104142F82310EFF3B4
:106A70000383103B5C4A5BB252F823402269137BCC
:106A8000C3F30000DB072CD494F82C3094F82A10C0
:106A9000994216D094F82D1009B1022B41D020460E
:106AA000FFF77CFF236994F82820DA7094F82B20F4
:106AB00094F82C30013A013384F82B2084F82C30E0
:106AC00070BD94F8333003F0FF053BBB236A93BBE2
:106AD00094F82E3063B352210123D17284F8303000
:106AE00070BD94F82D308BB194F8313073B9636A6E
:106AF000A1695279CA54D4E9082394F82E10013AB6
:106B00000133C4E9082379B12269E4E700200121B7
:106B10005423206284F82F10D37270BD84F83300A0
:106B200070BD5223D37270BD23695422DA7270BDD6
:106B30005423D37270BD94F82D1041B9616AA069D5
:106B4000013B405C0131C4E90831D07070BD94F85C
:106B5000311000292ED0216884F83150486900286E
:106B600038D08969002935D0E069022832D98E6889
:106B7000831E0868B668F42191709BB2A269294609
:106B8000B0472268E3695269916810688E68023BD9
:106B90009BB22A462946B047E36922690220023B9C
:106BA000C4E90803012184F833100023FF20937205
:106BB000D070CBE7636AA1695279CA54D4E908322C
:106BC000013B0132012BC4E90832226904D0FF20C5
:106BD000D070BBE7012BE8D12023FF209372D07047
:106BE000B4E700BF006000404C06002010B582B042
:106BF000EFF30383103B374A5BB252F8230002697C
:106C0000D37A6FF3C303D37290F82F30ABBB90F8F5
:106C10002A1003F0FF0C90F82C3099421BD1036A24
:106C20005BB990F82D1090F83040002914BF022174
:106C30000321A4B3D372FFF7CBFEEFF30383103B22
:106C40005BB2254AC03352F823106FF3104142F86B
:106C5000231002B010BDB3B9012929D090F829C082
:106C60000021D17282F803C090F82B200133013A41
:106C700080F82B2080F82C30DFE7F023D37201213D
:106C8000FFF7A6FED9E790F82D4004F0FF016CB1A4
:106C9000022BE5D190F829C04CF0010CE0E7F0237D
:106CA000D372937803F0CF039370C4E78C46D7E791
:106CB0000190FFF773FE019890F82A30012B05D15F
:106CC00090F828C0026990F82C30C9E7026990F862
:106CD0002C30C3E74C060020006000402DE9F04155
:106CE000124D1E46124BC5F8A43088461746D5F8FB
:106CF0000441002CFBDA01F053F8C5F800014046CE
:106D000001F04EF8C5F80001384601F049F8C5F821
:106D10000001304601F044F8044AC5F80001D2F8F9
:106D2000A830DB03FBD4BDE8F08100BF00000C40BD
:106D30008D380F402DE9F041124D1E46124BC5F81B
:106D4000A43088461746D5F80441002CFBDA01F040
:106D500027F8C5F80001404601F022F8C5F8000107
:106D6000384601F01DF8C5F80001304601F018F86A
:106D7000044AC5F80001D2F8A8309B03FBD4BDE853
:106D8000F08100BF00000C408D380E402DE9F0412D
:106D90000F4D1E460F4BC5F8A43088461746D5F850
:106DA0000441002CFBDA00F0FBFFC5F8000140466F
:106DB00000F0F6FFC5F80001384600F0F1FFC5F815
:106DC0000001304600F0ECFFC5F80001BDE8F0819D
:106DD00000000C408D380D40044B0022C3F83821D0
:106DE000C3F8D021C3F8D021704700BF00000C4089
:106DF0002DE9F041604C002582B0C4F8D05100F07C
:106E000011FD5E4AC4F838210123C4F8F0506360D4
:106E1000D4F8BC7117F01F0740F0A780C4F8803089
:106E2000636E1905C3F3C026FAD40822544B626678
:106E3000C4F884304FF47063C4F83C3140F25138E8
:106E400048F20303C4F888304E48C4F8048100F0C7
:106E5000A7FF05464C4800F0A3FF01904B4800F007
:106E60009FFF00904A4800F09BFFDDE900210346A8
:106E70002846FFF75FFF404D464BC4F88860C4F8D2
:106E80000481C4F8A430D5F80431002BFBDA424960
:106E9000424B434AC5F80011C5F80031414BC5F8D3
:106EA00000214148C5F8003100F07AFF04463F4810
:106EB00000F076FF01463E48019100F071FF00901E
:106EC0003C4800F06DFFDDE9002103462046FFF756
:106ED00031FF394800F064FF0446384800F060FF95
:106EE00001463748019100F05BFF0090354800F003
:106EF00057FFDDE9002103462046FFF7EFFE41F290
:106F0000010200236A60C5F8D031AB699A0407D446
:106F10002D4F20233846C5F8BC3102B0BDE8F081C2
:106F200040F20123C5F83C31284800F039FF0446FF
:106F3000274800F035FF01462648019100F030FF58
:106F40000090254800F02CFFDDE900210346204693
:106F5000FFF71CFF4023084AC5F8BC319369DB04E6
:106F6000FCD4384602B0BDE8F0814FF00117384636
:106F700002B0BDE8F08100BF00000C406A8097F5C8
:106F800001010100FF2A1D4C0AC8EB60E81E04DF66
:106F9000FD4845390D380F403C65BEE62C02A7CFB1
:106FA000BF2CF1B7C18EB97E2BE21B85473AE9A60B
:106FB0000A6214571F7B2D5FC8E4A8C057E78EB044
:106FC00036DDD16B560EFC11020001002DC253714B
:106FD0002DA102B400B05F35A778E555F8B52D4C6A
:106FE000D4F8BC5115F01F0540F0FB8240F201239C
:106FF000C4F884302849C4F808510323C4F8EC10BD
:10700000264AC4F8D0518021C4F8EC304FF4006314
:10701000C4F8D0512248C4F8EC20C4F8D051214A19
:10702000C4F8EC30C4F8D0511F4BC4F8EC101F4921
:10703000C4F8D051FFF752FE4FF4C0034FF4F842AA
:10704000C4F8EC20C4F8D051E361C4F8D051E3692E
:1070500013F07F4F34D0E36903F07F43B3F1807FB7
:1070600000F0AD82E36903F07F43B3F1007F38D1D4
:10707000636E1E05FCD40823064963664B6E1C052F
:10708000FCD45D2048660A4B0A4A0B490B48FFF7BF
:1070900051FE26E000000C4000A800302000010056
:1070A000C9D2FB0F724C476AD76A514351F08FAA7D
:1070B000199EBAD86839A7A2B83ECDB089FCC733AB
:1070C000636E1905FCD40823AF4963664B6E1A053D
:1070D000FCD45C204866AD4BAD4AAE49AE48FFF7E4
:1070E00029FEA94AAD4BAE48C2F8A4000021C2F85F
:1070F000E03041F60703C2F8D0111360136898011D
:10710000FCD44FF4C053D36100F094FC9E4A536EFC
:107110001905FCD4512140F284639B4CC2F8041140
:10712000C2F8A430D4F80431002BFBDA002000F0C0
:1071300037FE9C4BC4F800010021C4F8E030924AAD
:10714000C4F8D01148F20713236013689B01FCD4E4
:107150004FF4C05140F20F138B4CD1611360236880
:107160009F01C3F34066FAD44FF4C0524FF430533A
:10717000E2618D49C4F8EC308C4A8D4BC4F8D06183
:107180008C48FFF7ABFD4FF48003E361C4F8D06196
:10719000E3695E0200F129827B4A536E1805FCD434
:1071A000854B794C1C2051215066C2F80411C2F85D
:1071B000A430D4F80431002BFBDA002000F0F0FDFD
:1071C0007E4BC4F800010021C4F8E0306E4AC4F8D8
:1071D000D01148F21313236013689901FCD4784945
:1071E0004FF4C050D06141F21343C2F8A410664975
:1071F00013600B689B01FCD44FF4C053624ACB610F
:10720000536E1F05C3F3C021FAD46E485E4C51661D
:1072100048F21313C2F8E000C2F8D01113602368DB
:107220009E01FCD44FF4C051674B684AE161684845
:107230006849554EFFF752FD674B5122C4F80421AF
:10724000C4F8A430D6F80431002BFBDA002000F09B
:10725000A7FD4D4C614BC6F8000140F25132C6F813
:107260000421C6F8A430D4F80431002BFBDA002046
:1072700000F096FDC4F80001002000F091FDC4F874
:107280000001002000F08CFDC4F80001012000F096
:1072900087FD534B534A5449C4F800015348FFF744
:1072A0001DFD5349534B4FF48072C4F8B020C4F80D
:1072B000A4100022C4F8E0303349C4F8D02141F6CC
:1072C000230323600B689801FCD44B4A4FF4C05051
:1072D000C86141F21313C1F8A4202B4A0B60136854
:1072E0009901FCD43D49284C4FF4C05041F213138E
:1072F000D061C2F8A410136023689A01FCD44FF443
:10730000C0513E4B3E4AE1613E483F491E4FFFF7A8
:10731000E5FC3E4B40F25122C4F80421C4F8A430ED
:10732000D7F80431002BFBDA002000F039FD164EAF
:10733000374BC7F80001C7F8A430D6F80431002B4A
:10734000FBDA002000F02CFD0F4C314BC6F8000199
:10735000C6F8A430D4F80431002BFBDA002000F08A
:107360001FFD2C4AC4F8000141F21313C4F8A420F5
:10737000054A236013689B01FCD4274B024C4FF451
:10738000C05040F2511149E000000C409DA0B501F1
:10739000D84D475BCD578220815C4A3C000001817B
:1073A0000408040000000180727AB686F9E80E6FC6
:1073B0009796FF71335237B984062000000004808D
:1073C0009D0C20C080000480F97A4897B5083C7372
:1073D000ACD92786BF69236D04080B00050801009E
:1073E000C3EE75BA92DFED09DA88579E99B4865AD2
:1073F000BFB620000000088105080B002F31408730
:10740000F0D40C753290A8A03DC6A7363C362000BB
:10741000BC362000050806000C342100D061C2F8FB
:107420000411C2F8A430D4F80431002BFBDA002098
:1074300000F0B6FC744AC4F8000141F21313C4F81A
:10744000A420724A236013689F01FCD4704B6F4ED6
:107450004FF4C051D161C2F8A430D6F80431002BEA
:10746000FBDA002000F09CFC6A4B6B4AC6F8000176
:107470006A496B48654CFFF731FC6A4AC6F8A4209C
:1074800041F21313336023689E01FCD44FF4C051C2
:10749000654B664AE161664866495C4FFFF71EFC32
:1074A000654B40F25122C4F80421C4F8A430D7F847
:1074B0000431002BFBDA002000F072FC534E5F4BCE
:1074C000C7F80001C7F8A430D6F80431002BFBDA66
:1074D000002000F065FC4D4C584BC6F80001C6F882
:1074E000A430D4F80431002BFBDA002000F058FC63
:1074F000534AC4F8000141F21313C4F8A420434ACC
:10750000236013689801FCD44E4B404C4FF4C0509C
:1075100040F25111D061C2F80411C2F8A430D4F87D
:107520000431002BFBDA002000F03AFC364AC4F8A4
:10753000000141F21313C4F8A420344A23601368F5
:107540009901FCD4324B314E4FF4C051D161C2F895
:10755000A430D6F80431002BFBDA002000F020FC28
:10756000394BC6F80001394A39493A48274CFFF7E8
:10757000B5FB40F21313736063685A00FCD5364ABA
:10758000D4F800111161D4F800115161D4F8001140
:107590009161D4F80011314840F20223C4F83C3123
:1075A000D1612F4B2F4A3049FFF7F0FB4023174A98
:1075B000C4F8BC319369DB04FCD42846F8BD636E83
:1075C0001B05FCD40823114963664B6E1F05FCD4D0
:1075D0005E204866254B264A26492748FFF7AAFB26
:1075E0007FE54FF001152846F8BD244B244A254974
:1075F0002548FFF7CBFB4023044AC4F8BC3193690C
:10760000DC04FCD4214DD8E705080B0000000C4039
:107610008406000199C99BBD51CD8BBDE38D820BC2
:107620002D78883705080D00896301C08C45E65A1E
:1076300094F4BBBEA13FC0953C362000BC36200070
:10764000050806000C3421004B26ED1949E6E62C0E
:10765000A703AB61540BB9A680050020E7AA29E770
:1076600077D9AB6302AE4584876044009CA4593847
:107670003B8A91B3536435821F67DB41304EB7DBE1
:10768000891766A0CE1ED0B2848CED48040001009C
:10769000F8B5514CD4F8BC5115F01F0540F0978057
:1076A00040F60113C4F884304C4A4D4B4D49C4F8A0
:1076B000085106464C48FFF711FB4C4B40F2512253
:1076C000C4F80421C4F8A430D4F80431002BFBDA48
:1076D000002000F065FB464BC4F80001C4F8A4305C
:1076E0003D4CD4F80431002BFBDA002000F058FBAD
:1076F0003F4BC4F80001C4F8A430374CD4F804312F
:10770000002BFBDA002000F04BFB3A4BC4F80001E1
:10771000314AC4F8A43041F213132360136898016E
:10772000FCD44FF4C051D161334B2B4C40F251117A
:10773000C2F80411C2F8A430D4F80431002BFBDAEB
:10774000002000F02DFB2D4BC4F80001224AC4F8A4
:10775000A43041F21313236013689901FCD4284B21
:107760001D4F4FF4C051D161C2F8A430D7F8043195
:10777000002BFBDA002000F013FB224BC7F80001BE
:10778000214A22492248144CFFF7A8FA4FF4897382
:107790007B6063685A00FCD5D4F800313360D4F8BC
:1077A00000317360D4F80031B360D4F80021194B74
:1077B000F2601949194A1A48FFF7E8FA4023064AC5
:1077C000C4F8BC319369DB04FCD42846F8BD4FF003
:1077D00001152846F8BD00BF00000C40A716564C06
:1077E0007A827049E73C90CB3931063F3C36200025
:1077F000BC362000050806000C34210005080B00EB
:1078000084060001C0E8E5C532EBAFC92CEF9D84CA
:10781000B079E219A9BC00136CDD064E056A2F6E23
:107820000B337134734A70B44FF00113724CC2F8C9
:1078300038410120C2F80C3108214FF48073C2F89E
:107840008000C2F8A410C2F88C30536E1E05C3F33A
:10785000C020FAD4082555666849694C694B012552
:10786000D5675161634914615361C2F8D001C2F810
:10787000D0010B68DB0FFCD15F48C1F83801012251
:107880004FF00114C1F8F0300820C1F80C414FF45A
:107890008173C1F88020574AC1F8A400C1F88C3028
:1078A000536E1D05C3F3C020FAD40825556656490A
:1078B000564C574B0125D56751614E4914615361B0
:1078C000C2F8D001C2F8D0010B68DB0FFCD14A4AE4
:1078D000C1F838214FF00114C1F8F030012008231D
:1078E000444AC1F80C41C1F88000C1F8A430536E7D
:1078F0001C05C3F3C020FAD44349464D0123082494
:107900004FF480765466C2F88C60414CD36793671D
:107910005161384915615461C2F8D001C2F8D001F3
:107920000B68DB0FFCD13448C1F8380101224FF05D
:107930000114C1F8F0300820C1F80C4140F20313E3
:10794000C1F880202B4AC1F8A400C1F88C30536ED6
:107950001905C3F3C020FAD42F49304D052308245C
:107960000126546693662E4CD66793675161214970
:1079700015615461C2F8D001C2F8D0010B68DB0F69
:10798000FCD11D48C1F83801264AC1F8F0304FF04B
:1079900001144FF44060C1F80C41C1F8EC0001241F
:1079A000C1F8D03108200A606FF46263114AC1F84F
:1079B0008040C1F8A400C1F88C30536EC3F3C021DD
:1079C0001B05FAD41848194D0523082401265466CE
:1079D0009366174CD66793675061064815615461EA
:1079E000C2F8D011C2F8D0110368002BFCDB70BCC8
:1079F000704700BF00000C406A8097F505301010FA
:107A00006745230115301010053030102698A5EF7A
:107A1000153030105E465961053030707C4685B7B0
:107A200015303070028800080700301024A4599ADD
:107A3000170030102DE9F84FB14DB24B5122C5F867
:107A40000421C5F8A430D5F80431002BFBDAAE4888
:107A5000AB4C00F0A5F9AD4BC5F800015122C5F8BB
:107A60000421C5F8A430D4F80431002BFBDA00203F
:107A700000F096F94FF40065A549C4F80001002311
:107A8000C4F8EC5048F22302C4F8D031C4F8E01036
:107A90009B49C4F8D03122600B689C01C3F340625B
:107AA000FAD44FF4C054CC614BF26044C1F8EC40BE
:107AB0000224C1F8D021974BC1F8EC404BF2E044CE
:107AC000C1F8D0219448C1F8EC40DFF878E2C1F861
:107AD000D021DFF874C2C1F8EC30904F884B904E43
:107AE000C1F8D0214FF4806BC1F8A4008D48C3F8D1
:107AF000E00048F20741C3F8D021196019688801F5
:107B0000C1F34064FAD44FF4C05143F2C1458648F2
:107B1000D961C3F8EC502021C3F8D0410139C3F832
:107B2000ECE0C3F8D021C3F8EC00C3F8D021F5D1C4
:107B30007E4CC3F8E04041F60700C3F8D01118604E
:107B400019688901FCD44FF4C051794DDFF8FCA1CC
:107B5000D9614FF0080843F2414948F64041C3F863
:107B6000EC90C3F8D021C3F8EC100F21C3F8D0215A
:107B7000C3F8EC104FF40061C3F8D021C3F8EC1047
:107B800040F68401C3F8D02142F20344C3F8EC105C
:107B90004FF43250C3F8D02110210139C3F8ECC0A2
:107BA000C3F8D021C3F8EC50C3F8D021C3F8EC706F
:107BB000C3F8D021C3F8EC60C3F8D021C3F8EC407F
:107BC000C3F8D021C3F8EC00C3F8D021E5D1B8F157
:107BD0000108C3F8ECA0C3F8D011BED1BBF1010B72
:107BE00084D14749D1F8A830C3F380125B06F9D499
:107BF0004FF4806040F62103C1F8A4204BF280448A
:107C0000C1F8D021C861C1F8EC304FF43563C1F838
:107C1000D0214FF40060C1F8EC40C1F8D021C1F888
:107C2000EC3040F66303C1F8D02140F6C604C1F839
:107C3000EC00DFF814E1C1F8D021DFF814C1C1F87D
:107C4000EC303C4F2E4BC1F8D0211020C1F8EC4055
:107C500045F22306C1F8D02142F2C54580214FF4F8
:107C600024444FF0020942F660480138C3F8ECE0C2
:107C7000C3F8D021C3F8ECC0C3F8D021C3F8EC702E
:107C8000C3F8D021C3F8EC60C3F8D021C3F8EC10DE
:107C9000C3F8D021C3F8EC50C3F8D021C3F8EC40AE
:107CA000C3F8D021C3F8EC90C3F8D021C3F8EC801E
:107CB000C3F8D021D5D14FF400521F4DC3F8EC507A
:107CC000C3F8D001C3F8EC204FF41812C3F8D00168
:107CD0001A4CC3F8E010DA61194ADC61C3F8D0012C
:107CE000C3F8EC204FF42602C3F8D001C3F8EC002F
:107CF000C3F8D001C3F8E010DA61BDE8F88F00BF27
:107D000000000C408C3A0840193AA86304080100AE
:107D100000008880030040001E0C20C0A02C001032
:107D2000A03C000120000180C7080010C0000181B4
:107D30004408003820000700C088003800204000B8
:107D400020880038C66C010CA038000121680400AE
:107D50008528003008B50B4BD3F804216FF3DF7290
:107D6000C3F80421FFF738F8FFF742F800B108BD67
:107D7000054B4FF6FF72C3F8D421BDE80840FFF76A
:107D80002DB900BF006F044000000C4008B5FFF79C
:107D90007FFC024B002818BF184608BD02000100F6
:107DA00000BA7047F0B583B0EFF30384103C154B75
:107DB00064B253F82450EF68BFB16A682B6992F936
:107DC0000D20121B18BF01226E46C3B193E80300B9
:107DD00086E803001A706A695A601846B8472B692A
:107DE0001BB196E8030083E80300074BC03453F847
:107DF00024206FF3104243F8242003B0F0BD334633
:107E0000E8E700BF4C06002000600040EFF303836A
:107E1000103B5BB20649074A51F823100120C033DA
:107E2000087252F823106FF3104142F82310704784
:107E30004C06002000600040C8B2012383404AB9CC
:107E40001A040B0A5B0103F1804303F58023002031
:107E50009A6070479AB2F4E738B50488002C4DD088
:107E600043680021043303EBC40040F202450C4692
:107E700040F2034C40F2044E0FE0624530D153F81B
:107E8000042C02F0B852B2F1807F14BF41F002011D
:107E900044F002040833834211D01A88AA42ECD17C
:107EA00053F8042C02F0B852B2F1807F03F10803BA
:107EB00014BF41F0010144F001048342EDD1C943F4
:107EC000CDB2012001F042FF0D4B93F8BB241443C7
:107ED0002C4083F8BB440120BDE8384001F006BFC8
:107EE0007245D7D153F8042C02F0B852B2F1807F1A
:107EF0000CBF44F0040441F00401CBE7FF25E0E7A8
:107F000000E0014070B584B002AB012668460C4623
:107F10001546ADF80C100292ADF800600193FFF722
:107F20009BFFEFF3108286F310881D490B681BB985
:107F30001C48C3704023C3700B6801330B6082F38D
:107F40001088EA034FEA1423E4B219D41B01164A3D
:107F5000234442F82350EFF31082012383F3108867
:107F60000B6813B10B68013B0B600B681BB90D4923
:107F70008020CB70C87082F31088002004B070BDE0
:107F800004EB0310084A52F820606FF3104642F8E1
:107F9000206025F4803642F820601B01D7E700BF3F
:107FA00048060020000D04400008044070B5C36A74
:107FB00084B004468C46164601AD9BB193E8070099
:107FC00085E8070083F808C0226B1846C3E900263D
:107FD000A26A9047E36A1BB195E8070083E80700AF
:107FE00004B070BD2B46EDE78268012370B580F8C0
:107FF00020300226B323D37180F8216053790446E0
:108000006FF300035371C2690D46FFF7CFFFA368FA
:10801000DE705A7942F001025A7194F82120012A47
:1080200016D094F8212002B170BD052DFCD194F832
:108030002320002AF8D194F821201AB95A7A02F0A4
:10804000F3025A72BF210122D97184F8232070BD36
:10805000042DECD0082DE4D1E9E700BF30B583B0A2
:10806000EFF30383103B5BB2454AC03352F8231051
:108070006FF3104142F82310EFF30383103B5BB220
:10808000404A52F8234094F82230B3B9A368012241
:1080900084F82220DA7CD2B28DF805209DF80520E4
:1080A00012F0010F5A7A14BF02F0F70202F0F30245
:1080B0005A72AC22DA7103B030BD94F820304BB95B
:1080C000A3681B7A13F0080F204614BF082104216F
:1080D000FFF78AFF2269A2B9A368D97CC9B28DF8DB
:1080E00006109DF80610197941F0100119711979DF
:1080F00041F008011971197962F30411197103B083
:1081000030BDA369A1689A4209D0E268C97C581CB5
:10811000A061D154E3690133E36103B030BD0225AE
:1081200084F821504B79E2696FF300034B712046CC
:108130000621FFF73BFFA3682169DD705A7942F001
:1081400001025A7191B9DA7CD2B28DF807209DF8FC
:1081500007201A7942F010021A711A7942F00802C7
:108160001A711A7961F304121A71A4E7A269E1681D
:10817000DB7C501CA0618B54E3690133E3619AE717
:10818000006000404C06002038B5EFF30383103B3D
:108190005BB2244AC03352F823106FF3104142F807
:1081A0002310EFF30383103B5BB21F4A52F82340C6
:1081B00094F8203093B194F8213003F0FF0263B9B2
:1081C000A369216999420ED0E269E068A168C05CA8
:1081D000887401330132C4E9063238BD05212046D6
:1081E000FFF702FFE7E723680E4993F90E3003F12A
:1081F000C000002B51F8205062F3104541F8205088
:1082000009DB5A09094803F01F030121603201FA12
:1082100003F340F82230A268D37943F04003D371CE
:1082200038BD00BF006000404C06002000E100E0C7
:1082300038B5EFF30383103B204A5BB252F823407A
:10824000A1680B795807C3F3800217D5CA796FF379
:108250008612C023CA7101E0013B02D0CA795206DE
:10826000FAD4EFF30383103B5BB2154AC03352F8E4
:1082700023106FF3104142F8231038BD022584F813
:1082800021504B7962F300034B71E26907212046CC
:10829000FFF78CFEA168CD704B7943F001034B7161
:1082A00094F82130002BD1D1A369E269E068013252
:1082B000C05C88740133C4E90632C7E74C0600206D
:1082C0000060004010B582B0EFF30383103B3E4ADC
:1082D0005BB252F8230083685A7A91074DD1D1B22C
:1082E00011F00C0F3CD0012280F8242090F82120BE
:1082F000012A65D0016982699142C26988BF02F191
:10830000FF324FF0030188BFC2614FF0000EA0247E
:10831000DC7180F820E080F822E093F805C06EF36D
:10832000000C83F805C090F82440002C43D1DF24D2
:108330001C709F241C7000240223C46180F821302B
:10834000FFF734FEEFF30383103B5BB21F4AC033E9
:1083500052F823106FF3104142F8231002B010BD01
:10836000CA06EFD5DA7CD2B28DF807209DF8072037
:10837000DA7902F0EF02DA71E4E70022A02180F856
:108380002420D97180F8202080F82220597962F3C6
:108390000001597190F8241081B9DF219F221970D2
:1083A0001A7000210223C26980F82130C1610121C5
:1083B000FFF7FCFDC6E783F809E0BCE75A72F0E777
:1083C000C2690221A1E700BF4C0600200060004006
:1083D00030B5836B83B004460A466D46A3B193E87B
:1083E000030085E80300E16B1A71626B196018469F
:1083F0009047A36B1BB195E8030083E803000023BB
:1084000084F82B3003B030BD2B46ECE703690268DB
:108410002DE9F04F1F241C705F241C70DF241C709A
:10842000546A55682279564EDFF8608142F0E002C6
:108430001A74E27842F0E0025A74A278120102F053
:10844000700242F008029A7022786478012A0CBF08
:108450000522042242EA4402D2B2DA70494A954225
:108460000CBFF72277225A710027B3229F71DA716D
:1084700091F9112091F80DC0B4184FEA0C1C5FFA65
:108480008CFC84F800C302F1C00548F822003E4C81
:108490004FEA521E54F825904FEA8E0E67F31049AA
:1084A0000EF1604E44F825900EF5614E012502F064
:1084B0001F0205FA02F2CEF88021CEF8002091F9D1
:1084C0000F2006EB020E02F1C0098EF800C348F837
:1084D00022004FEA521E4FEA8E0E54F829B00EF1D8
:1084E000604E0EF5614E02F01F0205FA02F267F3CC
:1084F000104B44F829B0CEF88021CEF8002091F935
:10850000102006EB020E02F1C0098EF800C348F8F5
:1085100022004FEA521E54F829B04FEA8E0E0EF197
:10852000604E0EF5614E02F01F0267F3104B44F8E7
:1085300029B005FA02F2CEF88021CEF8002091F998
:108540000E100E444A0986F800C348F8210001F1D4
:10855000C00001F01F018D4054F82010920002F17C
:10856000604267F3104144F8201002F561424FF079
:108570009F0AC2F88051156083F800A0BDE8F08F13
:1085800000E100E040420F00006000404C06002087
:1085900010B483B0EFF30383103B5BB2484AC0339F
:1085A00052F823106FF3104142F82310EFF30383C6
:1085B000103B444A5BB252F8233093F82D20BAB9ED
:1085C0009A69022A1A699EBF117941F0400111711E
:1085D000D969012917D0D27CD2B28DF807200121A8
:1085E0009DF8072083F82D1003B05DF8044B704709
:1085F000DA69002AF8D0032A0ED0022A4ED0012AC6
:1086000021D019690DE0117941F010011171117932
:1086100041F008011171DEE719690A7942F0400260
:108620000A711A6A5869C97C8154D3E9072101315A
:10863000013AC3E90721002AD6D119690B7962F3FF
:1086400086130B71D0E793F82A1089B319681E4C72
:1086500091F90F104809203001F01F0102FA01F1D1
:1086600044F82010BFF34F8FBFF36F8F1969C8799B
:1086700040F08000C871087940F010000871087956
:108680004FF0040C6FF3C300087181F801C0487902
:108690006FF30000487183F82C20C2E719690A794A
:1086A00042F010020A710A7942F008020A71B8E732
:1086B00019694A7A082002F0F7024A724870B0E756
:1086C000006000404C06002000E100E0EFF303836F
:1086D000103B5BB2354AC03352F823106FF31041A0
:1086E00042F82310EFF30383103B5BB2304A52F899
:1086F000232092F82730002B37D192F829309BBBEA
:10870000D36910B4002B42D11069C1796FF3C7113E
:10871000C023C17101E0013B02D0C179C909FAD17E
:108720001368224A93F9103003F1C001002B52F86C
:1087300021406FF3104442F8214009DB5A091D4CD7
:1087400003F01F030121603201FA03F344F82230E1
:10875000C3795DF8044B43F04003C37170470229AD
:1087600009D192F8300030B9704792F826100329E9
:1087700092F82810F3D0106992F824C080F812C043
:108780000131013B82F8281082F827307047D2E986
:108790000404116A013B645C84740131C2E907314D
:1087A000002BB2D05DF8044B704700BF0060004062
:1087B0004C06002000E100E010B4EFF30383103B0F
:1087C0002B4A5BB252F8233093F829201AB193F860
:1087D0002720012A47D0DA69D2B11969CA796FF323
:1087E0008612C023CA7101E0013B02D0CA79520649
:1087F000FAD4EFF30383103B5BB21E4AC03352F846
:1088000023106FF3104142F823105DF8044B7047BA
:1088100093F82A10F9B11968174C91F90F1048090B
:1088200020304FF0010C01F01F010CFA01F144F867
:108830002010BFF34F8FBFF36F8F1969C87940F0D5
:108840008000C87104204870487962F300004871C4
:1088500083F82CC0C2E719694B7A082203F0F703AA
:108860004B724A70BAE793F83020002AB3D1B4E7CC
:108870004C0600200060004000E100E038B5EFF356
:108880000383103B4B4A5BB2E02152F8234023693B
:108890005A7A5972D506D0B202F003011FD55A7820
:1088A000520648D4E269012184F82B10002A5ED0D8
:1088B00000252168DD712046FFF7A8FD94F82610F9
:1088C000A2692369E56184F82810226284F82C509B
:1088D000B322DA7101212046FFF77AFD12E0002968
:1088E000E0D101071BD594F82B20002A48D194F839
:1088F0002910B322002914BF02210321DA71204676
:10890000FFF766FDEFF30383103B5BB22A4AC033E7
:1089100052F823106FF3104142F8231038BD94F839
:108920002C20002AEED04207ECD594F82B20012110
:10893000002AE4D1DBE70029B4D15A785506C2F306
:108940008011CED584F82B105A7A216802F0F702F4
:10895000496A5A72082058700A78012A0CBF03220B
:108960000222DA705A7942F001025A71CAE794F889
:108970002C20002A9CD194F82B20002AA8D097E71D
:10898000E2696AB1002294F82600A169E26184F8E4
:108990002800216284F82C20B322DA710121AEE78D
:1089A00094F82C20002AEDD194F82B20002AF3D043
:1089B000E8E700BF4C0600200060004010B582B020
:1089C000EFF30384103C164B164964B253F824208D
:1089D00050790B5C03F00303032B0FD0C03451F824
:1089E00024306FF3104341F82430936823B1D268E8
:1089F000CDE900206846984702B010BD936823B1C6
:108A0000D268CDE9002068469847064BC03453F839
:108A100024206FF3104243F8242002B010BD00BFA1
:108A20004C060020006000400346D3E902230020EA
:108A300053607047D0E90123D26930B4D2E9011400
:108A400044F00044D0685C61D2E9045440F0004036
:108A500041F000419861196100205D629C6230BC68
:108A6000704700BF002800DA704710B400F160437F
:108A7000114C03F561430901C9B283F8001344F8AE
:108A800020200E4900F1C00200F01F0C400951F8EF
:108A90002240800000F1604000F561406FF3104417
:108AA000012341F8224003FA0CF3C0F880315DF84D
:108AB000044B0360704700BF4C060020006000407C
:108AC00070B5836984B004468C46164601AD9BB1EF
:108AD00093E8070085E8070083F804C0E2691A609C
:108AE0009E60184662699047A3691BB195E807002C
:108AF00083E8070004B070BD2B46EDE790F800C096
:108B0000486EBCF1030F98BF01300AB1824227D3EF
:108B100010B4019C496BE40754BF01F01F01C1F37D
:108B20000441BCF1030F09D9090981F0010172B9AF
:108B3000E9B902225DF8044B5A60704701F00C015C
:108B4000A1F10401B1FA81F14909002AF0D0824271
:108B500001D30029EDD103225DF8044B5A60704720
:108B6000BCF1030F98BF02F1FF321A607047002872
:108B7000DFD0F0E72DE9F0470B7C0D46012101FA2B
:108B800003F2C260920716BF002201740274D5E995
:108B9000052103F5800303F5F0631B024261002207
:108BA000EE694560C0E9062184B004468360EFF3B6
:108BB0001080012383F31088854B297C0229D3F888
:108BC000081134BF6FF020076FF040073940C3F839
:108BD0000811D3F8083180F31088A3686F684FF448
:108BE00025411960DA62DA639A642A78297A032ABD
:108BF0004FEAC15107F1FF3C00F0D58084BF41EA44
:108C00000241BC46D6E9068ED9624FF00041196197
:108C10000020596199614FF0FF31586203909862CA
:108C20000291C3F81C80C3F820E0D6F82C80C3F86A
:108C300068C0C3F864C0002A40F0A08079080139F8
:108C40000291404601224FF0030C596599650028B6
:108C50005DD095F800E0B76A002F71D0B97897F829
:108C60000390090641EA097197F8049041EA094125
:108C70009963B968C3F88C10002965D0012148B9FF
:108C800097F81C9097F81BA04FEA496949EA4A29CE
:108C900048EA0908C3F8881040B996F8211096F8F8
:108CA0002000490741EA403148EA01084FF4AA018F
:108CB000BEF1010F196402D10021D9641965E16880
:108CC000D960C3F83480C3F830C01A63697C95F961
:108CD00012002246FFF7C6FE96F8221096F92400ED
:108CE0002246FFF7BFFE96F8231096F9250022468C
:108CF000FFF7B8FE2FB1397897F901002246FFF748
:108D0000B1FE344B2360002004B0BDE8F087317819
:108D1000F9B995F800E0B17800299CD0F778BEF158
:108D2000020F4FEA071141EA87113FD04BD90327C1
:108D30003943B76A48EA014848F08078002F8DD15E
:108D40009F63C3F88870A7E7F968003918BF01214D
:108D500095E795F800E07178BEF1020F4FEA8119AE
:108D60004FEA011724D029D9032148EA010848EA2B
:108D7000090848EA070848F48078CCE7012A19D0A6
:108D800000901946EA68606802ABFFF7B7FEDDE9BC
:108D90000210020442EA006242F0030CA368F06A87
:108DA00042F0010251E741F480312BE70927BFE788
:108DB0000921DAE740464FF0030C46E7002914BFCB
:108DC00009210621D1E7002F14BF09270627AFE7A5
:108DD000006F04405450470030B4436893F91220A8
:108DE000DB69002A11DB51092E4D02F01F0C2031E6
:108DF000012404FA0CF445F82140BFF34F8FBFF370
:108E00006F8F2949002441F8224093F92420002A39
:108E100011DB5109234D02F01F0C2031012404FA0B
:108E20000CF445F82140BFF34F8FBFF36F8F1E49FD
:108E3000002441F8224093F92520002A11DB510932
:108E4000184D02F01F0C2031012404FA0CF445F8EF
:108E50002140BFF34F8FBFF36F8F1349002441F8B8
:108E600022409B6AA3B193F90130002B10DB03F081
:108E70001F045A090121A14020320A4C44F8221053
:108E8000BFF34F8FBFF36F8F074A002142F82310C3
:108E90008268C1680023036030BC18469160536348
:108EA000704700BF00E100E04C06002030B4EFF353
:108EB0000383103B5BB2184A184C03F1C00152F80F
:108EC00021006FF3104042F8210054F82300446859
:108ED00094F800C0BCF1010F15D1D0E90254AC6088
:108EE0000024AC64EC642C6552F8215064F3104506
:108EF00042F821505A090A4903F01F0360320CFA64
:108F000003F341F82230436923B1002230BC1146FB
:108F1000FFF7D6BD30BC7047006000404C06002013
:108F200000E100E01E4B10B4C3600B7803F00103B6
:108F30004370EFF3108C012484F31088194BD3F89D
:108F4000082122F48012C3F80821D3F808318CF3E9
:108F50001088EFF3108C84F310884278D2B9C4687B
:108F6000237962F3861323718CF310884A684B7857
:108F7000D278C468D201DB01D2B2DBB26271A371D4
:108F80000123E3710A780270074B43605DF8044BDC
:108F900000207047C26813796FF3C7131371E3E7BA
:108FA00000E00540006F044000434144C36842783C
:108FB000002023F812107047EFF31083012282F390
:108FC00010884278C1683AB90A7942F040020A71C1
:108FD00083F31088002070470A7942F080020A71FA
:108FE00083F3108800207047EFF31081012383F38F
:108FF0001088427842B9C068037962F3861303711E
:1090000081F3108800207047C26813796FF3C7138B
:10901000137181F310880020704700BFEFF3108CAC
:10902000012383F31088437873B9C268117963F31D
:1090300086111171117A63F3861111728CF3108805
:109040000023436018467047C3681A796FF3C7124C
:109050001A711A7A6FF3C7121A72EFE7F0B5076A3E
:109060008BB0064667B3BE468C46BEE80F006C4622
:109070000FC4BEE80F000FC49EE8030084E803009D
:10908000BCE80F003D460FC5BCE80F000FC59CE8CB
:1090900003008EE80300F36938469847336A6BB1E2
:1090A000EE469C46BEE80F00ACE80F00BEE80F009D
:1090B000ACE80F009EE803008CE803000BB0F0BDA5
:1090C0000F46E8E730B58BB0EFF30383103B5BB29C
:1090D0002E4AC03352F823106FF3104142F8231088
:1090E000EFF30383103B5BB2294A52F8235000216F
:1090F0002822684607F05CFC6C6894F84D38002024
:10910000DBB284F84D08ADF80430B4F84218C1F36E
:109110000012C90638D543F02003ADF8043002230D
:1091200094F8532884F8533894F8523803F01F0306
:10913000D2B2E11884F8532891F8202860F3820213
:1091400081F820282A681268009269466A6A0393A7
:1091500028460492FFF782FFB4F84238DB0611D5A7
:109160002B681A69127D6AB193F91530002B09DB5F
:109170005A09084803F01F030121403201FA03F3A2
:1091800040F822300BB030BD1346DBE700600040F2
:109190004C06002000E100E02DE9F0418AB0EFF339
:1091A0000383103B5BB23F4AC03352F823106FF386
:1091B000104142F82310EFF30384103C3A4B66B29F
:1091C000002253F82600D0E900E595F8533885F8D9
:1091D000532895F8527807F01F07DBB207F12002F9
:1091E00085F85338130104F0FF0455F803C0CCF39D
:1091F00080718DF81910E958DEF810301B7B43EAB6
:10920000D17303F001038DF81830002B46D1CCF355
:109210008A4305EB021205939188C1F3030301F021
:109220000F0108298DF81A3035D908218DF81A1048
:1092300008AA002305EB071808EB030C01339CF880
:1092400006C202F801CB8B42F6D3DEF8003003975A
:109250002F440093442387F82038002307934FF4CA
:109260008063ADF804306946436A0493FFF7F6FE65
:10927000B5F84238DB070BD5002E09DB76090B4A1F
:1092800004F01F040123403603FA04F442F8264098
:109290000AB0BDE8F0810029CAD1D6E72CF06043BE
:1092A000B7E700BF006000404C06002000E100E08E
:1092B00070B58AB0EFF30383103B5BB2214AC03331
:1092C00052F823106FF3104142F82310EFF3038399
:1092D000103B1D4A5BB2012652F823506C6894F88B
:1092E000532884F8536894F85238D2B203F01F031D
:1092F00084F853280393E2184FF40063ADF8043068
:109300002B681B6800936B6A0493002382F8203853
:10931000694682F820382846FFF7A0FEB4F84238A4
:109320009B070CD52B6893F91730002B07DB5A09E4
:10933000064903F01F0340329E4041F822600AB004
:1093400070BD00BF006000404C06002000E100E05E
:109350008268117A01F00101137AC3F34003994244
:10936000FAD143681978012908D1C16893F810C06F
:1093700004484B1E9BB240F82C101380F12313724B
:109380000020704700060020D0E90223013BF121B4
:109390009BB2138000201172704700BF8268117A5F
:1093A00001F00101137AC3F340039942FAD14368F3
:1093B0004FF0F40C002182F808C0117393F91230B9
:1093C00013F1210F03D100230360184670478B422D
:1093D0001ADB5A0910B401210F4C203203F01F038D
:1093E00001FA03F344F82230BFF34F8FBFF36F8FBE
:1093F00043680A4A93F912305DF8044B42F823009F
:109400000023036018467047044A42F823000023F3
:1094100003601846704700BF00E100E04C060020E2
:10942000F0B40B7C03F1401303F500631B02C0E9A9
:109430000113EFF31085012383F310880C7C394A64
:10944000C4F10304A340D2F8084124EA0303C2F89C
:109450000831D2F8083185F310888268002313722E
:10946000137AC3F3400C9B07FAD4CC6982F80AC084
:10947000E37826780D7A247903F00703002E42D191
:10948000002D47D114734C684768002696735372B9
:10949000631E95729BB2C4603D7C1380224B43F8DF
:1094A000254091F91230B34222DB4A7C03F160443B
:1094B00004F561441201D2B284F800231B4A1C4C0B
:1094C00042F8230003F1C0055A0954F825709200B0
:1094D00002F1604266F3104744F8257002F56142DC
:1094E00003F01F03012404FA03F3C2F88031136070
:1094F000D1E9054100230F4A0461C0E9053102604A
:10950000F0BC18467047502E06BF43F05003654626
:109510003343B7E785F0020543EA0513DBB235466E
:10952000B0E700BF006F0440000600204C0600209A
:109530000060004054474100F0B585B0EFF303836D
:10954000103B5BB203F1C0011B4A1C4C52F82100D6
:109550006FF3104042F8210054F82340D4E901127F
:109560000978137A0129DBB204D1F42103F0F00366
:10957000117213722769B7B1656901AECDB195E873
:10958000070086E807009B0644BF00232B71A369F0
:109590002B602846B84763691BB196E8070083E84B
:1095A0000700A268137ADBB203F00F03137205B051
:1095B000F0BD3546E7E700BF006000404C060020E4
:1095C000034600201A689B8A1380704703681B8833
:1095D000C3F3C03300200B70704700BF0368103125
:1095E000002033F811301380704700BF43682DE925
:1095F000F041D1E901250C685E6903681FFA84F81F
:10960000A3F804801FFA82F8A3F8148022F0405CCB
:109610001FFA85F824F0405E25F040572243A3F856
:1096200008804FEA1C4C3F0C4FEA1E4812F0405F86
:10963000A3F80680A3F816C05F8159D1CA68002A32
:1096400000F0988015892F0522D5D2E900C7B2F81D
:109650000A80A3F89050A3F89C80B2F80C80A3F87D
:109660009E801FFA8CF8A3F89480CCF30B484FEA45
:109670001C7CA3F8968083F892C01FFA87FCA3F89D
:1096800098C0C7F30B4C3F0FA3F89AC083F89370B0
:10969000AF051FD40A8AA3F89050A3F88020F2786F
:1096A00092B11A88BEFA8EF11FFA82FE2EF01F0EBA
:1096B0000EF11F0E828AAEEB010E1FFA8EFE4EEAED
:1096C0000202A3F800E082822B4BC0E903340020A1
:1096D000BDE8F081977C92F813C047EA0C0783F845
:1096E000A670D789128AA3F8A870A3F8AA20D1E798
:1096F000224FD7F82080224F3F68C8F3026C07FA48
:109700000CFCC8F302181F4F2CFA08FCA7FB0C7CBA
:109710004FEA9C1C1C4F41F2883808FB0CFCA7FB4D
:109720000C7C4FEA9C4C0CF1010CBCF1070F38BFCC
:109730004FF0070C12F080570AD05FFA8CF715F043
:10974000805F83F8DE7040F2011708BF4FF4807726
:10975000920009D55FFA8CFC47F40077AA0083F8E1
:10976000DFC048BF47F00207CA68BFB25F82002A65
:109770007FF468AF15468DE74344415200E0014055
:10978000D8060020D34D621083DE1B432DE9F84339
:109790000B880C465B0222696669C968026203F1A4
:1097A000804303F5B8230022036081614460C261F5
:1097B000317962790546A0788F074FEA0223F17864
:1097C00043EA403354BF43F0400343F48863002925
:1097D00000F0DF8043F42073022A08BF764A9BB270
:1097E00008BF32F821C0AB8218BF4FF0000C2279BD
:1097F000E178707896F800E0D20342EA410242EA4A
:109800004010EFF31088012181F310886B4F2288FC
:10981000D7F80891C2F1100201FA02F229EA020215
:10982000C7F80821D7F8082188F3108847F6FF57B2
:109830002A6880B23B401380A2F810C0D08182F821
:109840000CE03379980700F1AD8082F88A3094F902
:109850000630002B22DB227A03F1604101F56141E1
:109860001201D2B281F80023554A564942F82350DA
:1098700003F1C0005A0951F82070920002F16042D1
:109880006FF3104741F8207002F5614203F01F03A7
:10989000012101FA03F3C2F88031136094F9073013
:1098A000002B22DB627A03F1604101F56141120174
:1098B000D2B281F80023424A424942F8235003F1D0
:1098C000C0005A0951F82040920002F160426FF343
:1098D000104441F8204002F5614203F01F030121CA
:1098E00001FA03F3C2F88031136096F90630002BB9
:1098F00022DB327A03F1604101F561411201D2B2FB
:1099000081F800232E4A2F4942F8235003F1C0006A
:109910005A0951F82040920002F160426FF310445E
:1099200041F8204002F5614203F01F03012101FAD2
:1099300003F3C2F88031136096F90730002B22DB65
:10994000727A1F4803F1604101F561411201D2B200
:1099500081F8002340F8235003F1C001194A52F85E
:1099600021006FF3104042F821005A09920002F1E1
:10997000604202F5614203F01F03012101FA03F383
:10998000C2F880311360104BAB6000202861BDE845
:10999000F883002A7FF420AF43F400439BB2AB82EC
:1099A000944624E743F0030382F88A30084600F027
:1099B0003DF92A68337948E7083B0100006F04400D
:1099C0004C060020006000404344415270B4002126
:1099D000C0E90211436893F906205C698A4211DBF1
:1099E0005309364E203302F01F0C012505FA0CF501
:1099F00046F82350BFF34F8FBFF36F8F304B43F8C0
:109A00002210436893F90730002B11DB5A092B4DC4
:109A100003F01F0C2032012101FA0CF145F822104D
:109A2000BFF34F8FBFF36F8F254A002142F82310F9
:109A300094F90630002B11DB5A09204D03F01F0C5E
:109A40002032012101FA0CF145F82210BFF34F8FAB
:109A5000BFF36F8F1A4A002142F8231094F90730A0
:109A6000002B10DB03F01F045A090121A140203212
:109A7000124C44F82210BFF34F8FBFF36F8F104A80
:109A8000002142F82310036800221A821A80EFF3A3
:109A90001084012383F3108840680A490088C0F1CC
:109AA00010008340D1F808010343C1F80831D1F810
:109AB000083184F31088104670BC704700E100E064
:109AC0004C060020006F0440064B074993F826001F
:109AD0001A6A51F820300549C2F30262D3400B6084
